:04000000C4EF06F053
:10060000002534640000010E1C6E17BE0AEF03F0D3
:100610000DEF03F0010E0EEF03F0000E1D6E4BC048
:100620001AF04CC01BF01D50D8B419EF03F01BEFAB
:1006300003F032EF03F01A06D8A01B061D50D8A411
:1006400024EF03F026EF03F02CEF03F0000E196EF9
:100650002B0E186E30EF03F0000E196E2D0E186E73
:1006600018C01DF0000E1F6E1F0E1E6E000E000142
:10067000A46F68EF03F01E06D8A01F061E50850F5A
:10068000D96EDA6A16C001F017C002F0000E046ECF
:100690000A0E036E7FEC05F001C007F002C008F0FF
:1006A0006BEC07F00750300FDF6E000E1C6E1A0661
:1006B000D8A01B0616C001F017C002F0000E046E91
:1006C0000A0E036E1DEC05F001C016F002C017F013
:1006D0001FBE73EF03F01F5008E11E04D8A073EF94
:1006E00003F075EF03F086EF03F016501710D8A44F
:1006F0007CEF03F07EEF03F03BEF03F01C50D8A437
:1007000084EF03F086EF03F03BEF03F01D50D8B405
:100710008CEF03F08EEF03F097EF03F01E06D8A0E6
:100720001F061E50850FD96EDA6A1DC0DFFF15C087
:100730000EF01E50850F0F6E1AC010F01BC011F086
:100740007FEC06F01200000E946E000E956E81682C
:100750008068860EC06E000EC16E20EEA5F010EE11
:1007600060F0090EDBCFE3FFE806FCE2AFC079F0F2
:10077000B0C07AF0B1C07BF0B2C07CF0010EC26EA6
:10078000000E0001826F000E816F814B822B82BFB1
:10079000D3EF03F0825109E1640E815DD8A0D3EF5D
:1007A00003F0D5EF03F0C5EF03F0030EC26E9EAC6D
:1007B000DCEF03F0DEEF03F0D7EF03F09E9CC3CF36
:1007C0007DF0C4CF7EF06A0E2C6E010E2D6E7DC0C2
:1007D0002EF07EC02FF051EC07F0000E0001806F6C
:1007E000000E7F6F000E846F000E836F8351790FB0
:1007F000D96EDA6ADF50836E83516A0FD96EDA6A76
:10080000DF50B1EC04F0F4EC06F00001834B842BD4
:1008100084BF14EF04F0845109E1040E835DD8A075
:1008200014EF04F016EF04F0F6EF03F07F4B802B8B
:1008300080BF24EF04F0805109E1640E7F5DD8A0F1
:1008400024EF04F026EF04F0F2EF03F0BEEF03F024
:1008500000EF00F02150D96EDA6ADFCFF6FF060E06
:10086000F76E0800F550250AD8A439EF04F03BEFE5
:1008700004F09FEF04F02150D96EDA6ADF2A000EEF
:100880004C6E000E4B6E4BC04FF04D684E6821C051
:1008900007F022C008F02CEC06F007C04BF008C0AF
:1008A0004CF04CBE58EF04F056EF04F05DEF04F04E
:1008B0004F804B6C4C1ED8B04C2A2150D96EDA6A4E
:1008C000DF50276E27C0F6FF060EF76E0800F550C2
:1008D000640AD8B46EEF04F070EF04F07EEF04F019
:1008E00027C0F6FF060EF76E0800F550690AD8A477
:1008F0007CEF04F07EEF04F099EF04F02250D96E03
:10090000DA6A020EDF26DF5CD96EDA6ADECF23F008
:10091000DECF24F02150D96EDA6A2728DF6E20C09E
:1009200015F023C016F024C017F003EC03F0B0EF6D
:1009300004F02150D96EDA6ADF2AB0EF04F02150BA
:10094000D96EDA6ADFCFF6FF060EF76E0800F550B3
:10095000016E026A20C003F0D7EC05F099EF04F0B5
:1009600012000F6E20EE3DF010EE05F0090EDBCF09
:10097000E3FFE806FCE247C001F048C002F049C0CE
:1009800003F04AC004F0EDEF04F005C082FF1CEF55
:1009900005F006C082FF1CEF05F007C082FF1CEFC8
:1009A00005F008C082FF1CEF05F009C082FF1CEFB4
:1009B00005F00AC082FF1CEF05F00BC082FF1CEFA0
:1009C00005F00CC082FF1CEF05F00DC082FF1CEF8C
:1009D00005F00EC082FF1CEF05F00F50200AD8B4BE
:1009E000C5EF04F0100AD8B4C5EF04F0010AD8B47A
:1009F000C9EF04F0030AD8B4CDEF04F0010AD8B46B
:100A0000D1EF04F0070AD8B4D5EF04F0010AD8B446
:100A1000D9EF04F0030AD8B4DDEF04F0010AD8B42A
:100A2000E1EF04F00F0AD8B4E5EF04F0010AD8B4FE
:100A3000E9EF04F01CEF05F01200000E066E04BE94
:100A400026EF05F024EF05F02CEF05F0036C041EF3
:100A5000D8B0042A010E066E02BE33EF05F031EF66
:100A600005F039EF05F0016C021ED8B0022A010E24
:100A7000061A000E086E000E076E03500410D8B45C
:100A800044EF05F046EF05F06EEF05F0010E056E40
:100A90004EEF05F0D89003360436052A04AE53EF26
:100AA00005F055EF05F04AEF05F0D8900736083607
:100AB0000350015C04500258D8A061EF05F063EFC9
:100AC00005F068EF05F00350015E0450025A0780FC
:100AD000D89004320332052E55EF05F00650D8B4F5
:100AE00074EF05F076EF05F07AEF05F0076C081E5D
:100AF000D8B0082A07C001F008C002F01200000EAA
:100B0000066E02BE88EF05F086EF05F08EEF05F069
:100B1000016C021ED8B0022A010E066E04BE95EFCB
:100B200005F093EF05F099EF05F0036C041ED8B0C3
:100B3000042A03500410D8B4A0EF05F0A2EF05F08A
:100B4000C6EF05F0010E056EAAEF05F0D89003364A
:100B50000436052A04AEAFEF05F0B1EF05F0A6EFBD
:100B600005F00350015C04500258D8A0BAEF05F01C
:100B7000BCEF05F0C0EF05F00350015E0450025ACF
:100B8000D89004320332052EB1EF05F00650D8B4E8
:100B9000CCEF05F0CEEF05F0D2EF05F0016C021EB0
:100BA000D8B0022A01C001F002C002F012000350C6
:100BB000D8B4DDEF05F0DFEF05F0E7EF05F0035007
:100BC000D8A4E5EF05F0E7EF05F0ECEF05F00150F4
:100BD000A6EC07F02BEF06F00350D96EDA6A0A0E86
:100BE000D926DE50DE10D8B4F8EF05F0FAEF05F0A4
:100BF00013EF06F00350D96EDA6A0A0ED9260350B5
:100C0000E16EE26A030EE126DE50E65CE650800A01
:100C1000086EDE50800A0858D8B011EF06F013EFC6
:100C200006F02BEF06F00350D96EDA6A030ED926D0
:100C3000DF50046E0350D96EDA6ADF500424D96E97
:100C4000DA6A01C0DFFF0350D96EDA6A030ED926D3
:100C5000DE2A000EDD221200000E0B6E000E0A6E60
:100C60000750D96EDA6ADFCFF6FF060EF76E08007E
:100C7000F5502A0AD8A43FEF06F041EF06F067EFDF
:100C800006F00750D96EDA6ADF2A0850D96EDA6AA0
:100C9000020EDF26DF5CD96EDA6ADECF0AF0DECF25
:100CA0000BF07AEF06F00AC001F00BC002F0000E64
:100CB000046E0A0E036E85EC07F0095001240A6EDB
:100CC000000E02200B6E0750D96EDA6ADF2A075039
:100CD000D96EDA6ADFCFF6FF060EF76E0800F55020
:100CE000D00F096E090E096478EF06F07AEF06F06E
:100CF00053EF06F00AC007F00BC008F012004FA037
:100D000084EF06F086EF06F08CEF06F00FC009F0D6
:100D10000EC00AF033EC07F011BE93EF06F091EF2E
:100D200006F097EF06F0000E116E000E106E000E2A
:100D3000146E000E136EA7EF06F0000E026E200E6A
:100D4000016E0EC003F0D7EC05F0134A142A1050C0
:100D5000135C1450800A126E1150800A1258D8A0E9
:100D6000B4EF06F0B6EF06F09DEF06F04FB0BBEF24
:100D700006F0BDEF06F0C3EF06F00FC009F00EC09D
:100D80000AF033EC07F012003E0EF66E0F0EF76E0F
:100D9000000EF86E00EEA5F010EE0EF00900F5CF93
:100DA000EEFFE550E150FAE1300EF66E0F0EF76EF1
:100DB000000EF86E00EE3DF010EE0EF00900F5CFDB
:100DC000EEFFE550E150FAE100EE85F0200EEE6A0C
:100DD000E806FDE14F6A4E6A4D6A4C6A4B6A000EA6
:100DE000F86E0001A3EF03F0000E016E000E026E1C
:100DF000000E036E000E046E010E0126000E02228C
:100E00000322042204BE11EF07F0045003100BE18B
:100E1000E80E015C030E0258D8A011EF07F013EFA3
:100E200007F0FCEF06F0120029C02BF020EF07F0CE
:100E300028C020F02B0E216E2AC022F02AEC04F0EC
:100E40002BC0F6FF060EF76E0800F5500009D8A477
:100E50002CEF07F02EEF07F018EF07F0000E296EC9
:100E6000000E286E1200000E0D6E000E0C6E42EF8A
:100E700007F00BC001F0026A0AC003F0D7EC05F0DE
:100E80000C4A0D2A09500C24D96EDA6ADF500B6E19
:100E90000B50D8A44EEF07F050EF07F039EF07F0F2
:100EA00012002E0E306E2CC031F0000E356E000E8A
:100EB000346E000E3C6E000E3B6E310E286E2DC05F
:100EC00029F0300E2A6E14EC07F02C503424D96E21
:100ED000DA6ADF6A120008BE70EF07F072EF07F0FF
:100EE00078EF07F007C007F008C008F084EF07F0BC
:100EF00007C009F008C00AF0091E0A1E094A0A2A9A
:100F000009C007F00AC008F0120001500302F3CF35
:100F100005F0F4CF06F001500402F350062602500B
:100F20000302F350062605C001F006C002F01200CD
:100F30003F065B4F666D7D077F6F0E0D0B073F060B
:0E0F40005B4F666D7D077F6F0E0D0B07120075
:00000001FF
