:0400000070EF03F0AA
:100600000000800E946E000E956E240EAC6E900E5F
:10061000AB6E810EAF6E0F0EC16EF00E936E000EBC
:10062000926E010E3EEC03F00F0E3EEC03F0380E1E
:100630003EEC03F0060E3EEC03F066EC03F0046EB5
:100640002A0E0418D8A427EF03F029EF03F01DEFBA
:1006500003F066EC03F0046E230E0418D8A433EF05
:1006600003F035EF03F037EF03F01DEF03F0045014
:100670005AEC03F029EF03F000EF00F0016E8290D6
:10068000829201C083FF8284000E036E000E026E10
:10069000024A032A03BE56EF03F0E90E025C030E82
:1006A0000358D8A056EF03F058EF03F048EF03F0DB
:1006B00082941200016E01C0ADFF9EA862EF03F0AC
:1006C00064EF03F05DEF03F09E9812009EAA6BEFBB
:1006D00003F06DEF03F066EF03F09E9AAE50120048
:0606E000000101EF03F030
:00000001FF
