:04000000EDEF03F02D
:100600000000000E946E000E956E816820EE1BF0C7
:1006100010EE05F0090EDBCFE3FFE806FCE225C093
:100620000FF026C010F027C011F028C012F0000E05
:10063000146E000E136E000E166E000E156E000E78
:10064000186E000E176E000E1A6E000E196E12C094
:1006500083FF1950050FD96EDA6ADF50826ECDEC38
:1006600003F011C083FF1750050FD96EDA6ADF500F
:10067000826ECDEC03F010C083FF1550050FD96ECC
:10068000DA6ADF50826ECDEC03F00FC083FF1350A7
:10069000050FD96EDA6ADF50826ECDEC03F081AEC1
:1006A00054EF03F056EF03F027EF03F080EF03F071
:1006B00012C083FF1950050FD96EDA6ADF50826EBF
:1006C000CDEC03F011C083FF1750050FD96EDA6A25
:1006D000DF50826ECDEC03F010C083FF1550050F84
:1006E000D96EDA6ADF50826ECDEC03F00FC083FF63
:1006F0001350050FD96EDA6ADF50826ECDEC03F02D
:1007000081BE85EF03F087EF03F058EF03F0CDECE7
:1007100003F0194A1A2A1ABE97EF03F01A5009E19A
:100720000A0E195CD8A097EF03F099EF03F027EFBA
:1007300003F0174A182A18BEA7EF03F0185009E172
:100740000A0E175CD8A0A7EF03F0A9EF03F023EF80
:1007500003F0154A162A16BEB7EF03F0165009E14A
:100760000A0E155CD8A0B7EF03F0B9EF03F01FEF46
:1007700003F0134A142A14BEC7EF03F0145009E122
:100780000A0E135CD8A0C7EF03F0C9EF03F01BEF0C
:1007900003F017EF03F000EF00F0000E016E000E03
:1007A000026E000E036E000E046E010E0126000E96
:1007B00002220322042204BEEAEF03F004500310D5
:1007C0000BE1E80E015C030E0258D8A0EAEF03F03B
:1007D000ECEF03F0D5EF03F01200000EF66E080EFA
:1007E000F76E000EF86E00EE1BF010EE0EF0090032
:1007F000F5CFEEFFE550E150FAE1000101EF03F023
:0E0800003F065B4F666D7D077F6F0E0D0B0789
:00000001FF
