:0400000007EF00F016
:0A0008002D8201ED03F085EF04F0F6
:1006000000000600F0A007EF03F009EF03F032EF5F
:1006100004F0000E836E000E016E000E026E000EDE
:10062000036E000E046E010E0126000E022203224C
:10063000042204BE28EF03F0045003100BE1500E17
:10064000015CC30E0258D8A028EF03F02AEF03F094
:1006500013EF03F0010E836E000E056E000E066EA2
:10066000000E076E000E086E010E0526000E062213
:100670000722082208BE49EF03F0085007100BE1DB
:10068000500E055CC30E0658D8A049EF03F04BEF9F
:1006900003F034EF03F0020E836E000E096E000EBD
:1006A0000A6E000E0B6E000E0C6E010E0926000E77
:1006B0000A220B220C220CBE6AEF03F00C500B1026
:1006C0000BE1500E095CC30E0A58D8A06AEF03F084
:1006D0006CEF03F055EF03F0040E836E000E0D6E09
:1006E000000E0E6E000E0F6E000E106E010E0D2627
:1006F000000E0E220F22102210BE8BEF03F01050BE
:100700000F100BE1500E0D5CC30E0E58D8A08BEFEE
:1007100003F08DEF03F076EF03F0080E836E000E0A
:10072000116E000E126E000E136E000E146E010E8E
:100730001126000E12221322142214BEACEF03F075
:10074000145013100BE1500E115CC30E1258D8A0B8
:10075000ACEF03F0AEEF03F097EF03F0100E836EF3
:10076000000E156E000E166E000E176E000E186E3F
:10077000010E1526000E16221722182218BECDEFE4
:1007800003F0185017100BE1500E155CC30E1658ED
:10079000D8A0CDEF03F0CFEF03F0B8EF03F0200EB9
:1007A000836E000E196E000E1A6E000E1B6E000E88
:1007B0001C6E010E1926000E1A221B221C221CBEC2
:1007C000EEEF03F01C501B100BE1500E195CC30E32
:1007D0001A58D8A0EEEF03F0F0EF03F0D9EF03F0D2
:1007E000400E836E000E1D6E000E1E6E000E1F6EFC
:1007F000000E206E010E1D26000E1E221F2220223A
:1008000020BE0FEF04F020501F100BE1500E1D5CB6
:10081000C30E1E58D8A00FEF04F011EF04F0FAEF4A
:1008200003F0800E836E000E216E000E226E000E0D
:10083000236E000E246E010E2126000E222223229A
:10084000242224BE30EF04F0245023100BE1500E7C
:10085000215CC30E2258D8A030EF04F032EF04F030
:100860001BEF04F0F2922D9211000F0EC16E9368EF
:10087000000E956E95CF94FFC00EF26E080EF06ECE
:100880008268000E256E000E266E000E276E000E8A
:10089000286E010E2526000E26222722282228BE99
:1008A0005EEF04F0285027100BE1500E255CC30EBC
:1008B0002658D8A05EEF04F060EF04F049EF04F092
:1008C000000E826E000E296E000E2A6E000E2B6E38
:1008D000000E2C6E010E2926000E2A222B222C221D
:1008E0002CBE7FEF04F02C502B100BE1500E295C36
:1008F000C30E2A58D8A07FEF04F081EF04F06AEF0E
:1009000004F040EF04F007EF00F02D902D9200016D
:0409100035EF04F0CB
:00000001FF
