:040000008EEF06F089
:1006000000656E747279206D69736D617463680042
:10061000656E746572206F6C642070617373006521
:100620006E746572206E6577207061737300636FFE
:100630007272656374207061737300656E746572A5
:1006400020616761696E0077726F6E6720706173F9
:100650007300656E746572207061737300706173EE
:0706600073207365740000B4
:100668000F0EC16EF00E936E000E926E000E956E18
:1006780095CF94FF010EFFEC05F00F0EFFEC05F08F
:10068800380EFFEC05F020EE49F010EE16F0040EDF
:10069800DBCFE3FFE806FCE220EE44F010EE0CF0BE
:1006A800040EDBCFE3FFE806FCE220EE3FF010EE9D
:1006B80011F0040EDBCFE3FFE806FCE220EE3AF08F
:1006C80010EE07F0040EDBCFE3FFE806FCE2010EB4
:1006D800FFEC05F0800EFFEC05F0520E066EA5EC5F
:1006E80006F0C00EFFEC05F0000E356E000E366EFB
:1006F800000E376E000E386E66EC05F0396E81A874
:1007080088EF03F08AEF03F083EF03F081AA8FEFFD
:1007180003F091EF03F083EF03F081AC96EF03F061
:1007280098EF03F083EF03F081AE9DEF03F09FEFA6
:1007380003F083EF03F03550160FD96EDA6A39C02B
:10074800DFFF720E3918D8A4ACEF03F0AEEF03F058
:10075800DAEF04F0010EFFEC05F0800EFFEC05F077
:10076800100E066EA5EC06F0C00EFFEC05F0000EAC
:10077800306E000E2F6E66EC05F0396E39502FEC96
:1007880006F02F50160FD96EDA6A39C0DFFF2F4AEC
:10079800302A30BED9EF03F0305009E1040E2F5C47
:1007A800D8A0D9EF03F0DBEF03F0BFEF03F0160E8C
:1007B800016E0C0E026E5FEC06F001500210D8B408
:1007C800E8EF03F0EAEF03F015EF04F0010EFFEC99
:1007D80005F0800EFFEC05F0470E066EA5EC06F05E
:1007E800000E1B6E000E1C6E000E1D6E000E1E6E9F
:1007F800010E1B26000E1C221D221E221EBE11EFFA
:1008080004F01E501D100BE1880E1B5C130E1C58C3
:10081800D8A011EF04F013EF04F0FCEF03F06BEF36
:1008280003F0010EFFEC05F0800EFFEC05F01F0E43
:10083800066EA5EC06F0C00EFFEC05F0000E326E59
:10084800000E316E66EC05F0396E39502FEC06F06B
:100858003150110FD96EDA6A39C0DFFF314A322AB6
:1008680032BE40EF04F0325009E1040E315CD8A0EA
:1008780040EF04F042EF04F026EF04F0010EFFEC25
:1008880005F0800EFFEC05F03B0E066EA5EC06F0B9
:10089800C00EFFEC05F0000E346E000E336E66ECF1
:1008A80005F0396E39502FEC06F03350070FD96E2A
:1008B800DA6A39C0DFFF334A342A34BE6DEF04F0F8
:1008C800345009E1040E335CD8A06DEF04F06FEFEB
:1008D80004F053EF04F0110E016E070E026E5FEC88
:1008E80006F001500210D8A47CEF04F07EEF04F06B
:1008F800AFEF04F0010EFFEC05F0800EFFEC05F001
:100908000C0E016E110E026EBBEC06F05D0E066E4B
:10091800A5EC06F0000E1F6E000E206E000E216E74
:10092800000E226E010E1F26000E202221222222F6
:1009380022BEABEF04F0225021100BE1880E1F5CA1
:10094800130E2058D8A0ABEF04F0ADEF04F096EFEB
:1009580004F06BEF03F0010EFFEC05F0800EFFECE6
:1009680005F0010E066EA5EC06F0000E236E000ED3
:10097800246E000E256E000E266E010E2326000E34
:1009880024222522262226BED6EF04F02650251042
:100998000BE1880E235C130E2458D8A0D6EF04F080
:1009A800D8EF04F0C1EF04F06BEF03F039502FECEF
:1009B80006F0030E3518361037103810D8A4E7EFB4
:1009C80004F0E9EF04F04CEF05F0160E016E0C0E82
:1009D800026E5FEC06F001500210D8A4F6EF04F0A6
:1009E800F8EF04F023EF05F0010EFFEC05F0800EA0
:1009F800FFEC05F02E0E066EA5EC06F0000E276E35
:100A0800000E286E000E296E000E2A6E010E272693
:100A1800000E282229222A222ABE1FEF05F02A507A
:100A280029100BE1880E275C130E2858D8A01FEF59
:100A380005F021EF05F00AEF05F04CEF05F0010E87
:100A4800FFEC05F0800EFFEC05F0470E066EA5ECF6
:100A580006F0000E2B6E000E2C6E000E2D6E000E92
:100A68002E6E010E2B26000E2C222D222E222EBE9B
:100A78004AEF05F02E502D100BE1880E2B5C130E5B
:100A88002C58D8A04AEF05F04CEF05F035EF05F0EB
:100A9800010E3526000E36223722382238BE60EF86
:100AA80005F038503710361009E1040E355CD8A02F
:100AB80060EF05F062EF05F080EF03F06BEF03F0F5
:100AC80000EF00F00E0E816E81B86DEF05F06FEF4C
:100AD80005F072EF05F0310EFEEF05F081BA77EF01
:100AE80005F079EF05F07CEF05F0320EFEEF05F02A
:100AF80081BC81EF05F083EF05F086EF05F0330E3A
:100B0800FEEF05F081BE8BEF05F08DEF05F090EF5D
:100B180005F0340EFEEF05F00D0E816E81B897EFEB
:100B280005F099EF05F09CEF05F0350EFEEF05F0A6
:100B380081BAA1EF05F0A3EF05F0A6EF05F0360E98
:100B4800FEEF05F081BCABEF05F0ADEF05F0B0EFBF
:100B580005F0370EFEEF05F081BEB5EF05F0B7EFF3
:100B680005F0BAEF05F0380EFEEF05F00B0E816EBA
:100B780081B8C1EF05F0C3EF05F0C6EF05F0390EF7
:100B8800FEEF05F081BACBEF05F0CDEF05F0D0EF21
:100B980005F0300EFEEF05F081BCD5EF05F0D7EF7C
:100BA80005F0D9EF05F0D9EF05F0070E816E81B891
:100BB800E0EF05F0E2EF05F0E4EF05F066EF05F091
:100BC80081BAE9EF05F0EBEF05F0EDEF05F066EF20
:100BD80005F081BCF2EF05F0F4EF05F0F6EF05F053
:100BE80066EF05F081BEFBEF05F0FDEF05F066EF5F
:100BF80005F0720E1200016E8290829201C083FF8E
:100C08008284000E036E000E026E024A032A03BE9F
:100C180017EF06F0035009E1650E025CD8A017EF44
:100C280006F019EF06F009EF06F08294000E056E43
:100C3800000E046E044A052A05BE2CEF06F0890E44
:100C4800045C130E0558D8A02CEF06F02EEF06F022
:100C58001EEF06F01200016E8280829201C083FFAF
:100C68008284000E036E000E026E024A032A03BE3F
:100C780047EF06F0035009E1650E025CD8A047EF84
:100C880006F049EF06F039EF06F08294000E056E83
:100C9800000E046E044A052A05BE5CEF06F0E90E54
:100CA800045C030E0558D8A05CEF06F05EEF06F072
:100CB8004EEF06F0120063EF06F0012A022A0250F6
:100CC800D96EDA6A0150E16EE26ADE50E618D8A4FD
:100CD80070EF06F072EF06F07DEF06F00150D96E66
:100CE800DA6ADF50D8A47BEF06F07DEF06F061EFFB
:100CF80006F00150D96EDA6ADF50036E0250D96EE1
:100D0800DA6ADF50046E0450035C016E026AD8A0F0
:100D180002061200A00EF66E0D0EF76E000EF86EAB
:100D280000EE3AF010EE14F00900F5CFEEFFE550B2
:100D3800E150FAE1000EF86E060EF76E000134EF8E
:100D480003F0AEEF06F006C0F6FF0800F5502FECF2
:100D580006F0062A06C0F6FF0800F5500009D8A4D8
:100D6800B8EF06F0BAEF06F0A7EF06F0120001C0E0
:100D780003F0022A0204D96EDA6A032A0304E16E38
:100D8800E26ADFCFE7FFE750D8A4CDEF06F0CFEF58
:100D980006F0BDEF06F01200303030300030303051
:0C0DA80030003132333400303030300085
:020000040030CA
:02000000FF08F7
:00000001FF
